{
  "contractName": "CryptoBond",
  "abi": [
    {
      "inputs": [],
      "stateMutability": "nonpayable",
      "type": "constructor"
    },
    {
      "anonymous": false,
      "inputs": [
        {
          "indexed": true,
          "internalType": "address",
          "name": "user",
          "type": "address"
        },
        {
          "indexed": false,
          "internalType": "uint256",
          "name": "amount",
          "type": "uint256"
        },
        {
          "indexed": false,
          "internalType": "bool",
          "name": "won",
          "type": "bool"
        }
      ],
      "name": "BetResult",
      "type": "event"
    },
    {
      "inputs": [],
      "name": "bet",
      "outputs": [],
      "stateMutability": "payable",
      "type": "function"
    },
    {
      "inputs": [],
      "name": "owner",
      "outputs": [
        {
          "internalType": "address",
          "name": "",
          "type": "address"
        }
      ],
      "stateMutability": "view",
      "type": "function"
    }
  ],
  "bytecode": "0x608060405234801561000f575f80fd5b50d3801561001b575f80fd5b50d28015610027575f80fd5b50335f806101000a81548173ffffffffffffffffffffffffffffffffffffffff021916908373ffffffffffffffffffffffffffffffffffffffff16021790555061050a806100745f395ff3fe608060405260043610610028575f3560e01c806311610c251461002c5780638da5cb5b14610036575b5f80fd5b610034610078565b005b348015610041575f80fd5b50d3801561004d575f80fd5b50d28015610059575f80fd5b50610062610193565b60405161006f9190610228565b60405180910390f35b5f34116100ba576040517f08c379a00000000000000000000000000000000000000000000000000000000081526004016100b1906102c1565b60405180910390fd5b5f8060026100c66101b6565b6100d09190610315565b1490505f816100eb576002346100e69190610372565b6100f9565b6002346100f891906103a2565b5b90503373ffffffffffffffffffffffffffffffffffffffff166108fc8290811502906040515f60405180830381858888f1935050505015801561013e573d5f803e3d5ffd5b503373ffffffffffffffffffffffffffffffffffffffff167f1a339eed7b009ac7b5f7adafb079ac94ff2d2688428e022dd489ccc433ea95e8828460405161018792919061040c565b60405180910390a25050565b5f8054906101000a900473ffffffffffffffffffffffffffffffffffffffff1681565b5f4442336040516020016101cc93929190610498565b604051602081830303815290604052805190602001205f1c905090565b5f73ffffffffffffffffffffffffffffffffffffffff82169050919050565b5f610212826101e9565b9050919050565b61022281610208565b82525050565b5f60208201905061023b5f830184610219565b92915050565b5f82825260208201905092915050565b7f42657420616d6f756e74206d7573742062652067726561746572207468616e205f8201527f7a65726f00000000000000000000000000000000000000000000000000000000602082015250565b5f6102ab602483610241565b91506102b682610251565b604082019050919050565b5f6020820190508181035f8301526102d88161029f565b9050919050565b5f819050919050565b7f4e487b71000000000000000000000000000000000000000000000000000000005f52601260045260245ffd5b5f61031f826102df565b915061032a836102df565b92508261033a576103396102e8565b5b828206905092915050565b7f4e487b71000000000000000000000000000000000000000000000000000000005f52601160045260245ffd5b5f61037c826102df565b9150610387836102df565b925082610397576103966102e8565b5b828204905092915050565b5f6103ac826102df565b91506103b7836102df565b92508282026103c5816102df565b915082820484148315176103dc576103db610345565b5b5092915050565b6103ec816102df565b82525050565b5f8115159050919050565b610406816103f2565b82525050565b5f60408201905061041f5f8301856103e3565b61042c60208301846103fd565b9392505050565b5f819050919050565b61044d610448826102df565b610433565b82525050565b5f8160601b9050919050565b5f61046982610453565b9050919050565b5f61047a8261045f565b9050919050565b61049261048d82610208565b610470565b82525050565b5f6104a3828661043c565b6020820191506104b3828561043c565b6020820191506104c38284610481565b60148201915081905094935050505056fea26474726f6e58221220cb7d667c074c6e8cf6b6fea1feb1ba2f65d4c83685a67bb25138420dc47c5bde64736f6c63430008140033",
  "source": "// SPDX-License-Identifier: MIT\npragma solidity ^0.8.20;\n\ncontract CryptoBond {\n    address public owner;\n\n    event BetResult(address indexed user, uint256 amount, bool won);\n\n    constructor(){\n        owner = msg.sender;\n    }\n\n    function bet() public payable {\n    require(msg.value > 0, \"Bet amount must be greater than zero\");\n\n    bool won = random() % 2 == 0;\n    uint256 payout = won ? msg.value * 2 : msg.value / 2;\n\n    // Transfer the payout amount based on the result\n    payable(msg.sender).transfer(payout);\n\n    emit BetResult(msg.sender, payout, won);\n}\n\n\n    function random() private view returns (uint256) {\n    return uint256(keccak256(abi.encodePacked(block.prevrandao, block.timestamp, msg.sender)));}\n\n\n}\n\n",
  "sourcePath": "C:/Users/Gikenye workbench/Documents/CryptoBond-smart-contracts/contracts/CryptoBond.sol",
  "compiler": {
    "name": "solc",
    "version": "0.8.20+commit.5f1834bc.Emscripten.clang"
  },
  "schemaVersion": "2.0.1",
  "updatedAt": "2024-07-30T11:38:29.328Z"
}